{
  "contractName": "Mctinder",
  "abi": [
    {
      "constant": true,
      "inputs": [
        {
          "internalType": "uint256",
          "name": "",
          "type": "uint256"
        }
      ],
      "name": "ajudantes",
      "outputs": [
        {
          "internalType": "address",
          "name": "",
          "type": "address"
        }
      ],
      "payable": false,
      "stateMutability": "view",
      "type": "function"
    },
    {
      "constant": false,
      "inputs": [
        {
          "internalType": "uint256",
          "name": "colId",
          "type": "uint256"
        }
      ],
      "name": "ajuda",
      "outputs": [
        {
          "internalType": "uint256",
          "name": "",
          "type": "uint256"
        }
      ],
      "payable": false,
      "stateMutability": "nonpayable",
      "type": "function"
    },
    {
      "constant": true,
      "inputs": [],
      "name": "getAjudantes",
      "outputs": [
        {
          "internalType": "address[16]",
          "name": "",
          "type": "address[16]"
        }
      ],
      "payable": false,
      "stateMutability": "view",
      "type": "function"
    }
  ],
  "bytecode": "0x608060405234801561001057600080fd5b506102b9806100206000396000f3fe608060405234801561001057600080fd5b50600436106100415760003560e01c80632e489a6e1461004657806358a81212146100b4578063cdcbdd58146100f6575b600080fd5b6100726004803603602081101561005c57600080fd5b810190808035906020019092919050505061013c565b604051808273ffffffffffffffffffffffffffffffffffffffff1673ffffffffffffffffffffffffffffffffffffffff16815260200191505060405180910390f35b6100e0600480360360208110156100ca57600080fd5b810190808035906020019092919050505061016f565b6040518082815260200191505060405180910390f35b6100fe6101e0565b6040518082601060200280838360005b8381101561012957808201518184015260208101905061010e565b5050505090500191505060405180910390f35b6000816010811061014957fe5b016000915054906101000a900473ffffffffffffffffffffffffffffffffffffffff1681565b60008082101580156101825750600f8211155b61018b57600080fd5b336000836010811061019957fe5b0160006101000a81548173ffffffffffffffffffffffffffffffffffffffff021916908373ffffffffffffffffffffffffffffffffffffffff160217905550819050919050565b6101e8610261565b6000601080602002604051908101604052809291908260108015610257576020028201915b8160009054906101000a900473ffffffffffffffffffffffffffffffffffffffff1673ffffffffffffffffffffffffffffffffffffffff168152602001906001019080831161020d575b5050505050905090565b60405180610200016040528060109060208202803883398082019150509050509056fea265627a7a72315820020dd1693c69e13374df8e3b15b6ae53c9633c27803f3f1fd47f072ae88211da64736f6c63430005100032",
  "source": "pragma solidity ^0.5.0;\r\n\r\ncontract Mctinder {\r\n\taddress[16] public ajudantes;\r\n\t\r\n\t// Ajudando o colega\r\n\tfunction ajuda(uint colId) public returns (uint) {\r\n\t\trequire(colId >= 0 && colId <= 15);\r\n\r\n\t\tajudantes[colId] = msg.sender;\r\n\r\n\t\treturn colId;\r\n\t}\r\n\r\n\t// Recuperando os ajudantes\r\n\tfunction getAjudantes() public view returns (address[16] memory) {\r\n\t  return ajudantes;\r\n\t}\r\n}",
  "sourcePath": "C:/McTinder/contracts/Mctinder.sol",
  "compiler": {
    "name": "solc",
    "version": "0.5.16+commit.9c3226ce.Emscripten.clang"
  },
  "schemaVersion": "3.2.5",
  "updatedAt": "2020-09-27T05:55:31.928Z",
  "networkType": "ethereum",
  "devdoc": {
    "methods": {}
  },
  "userdoc": {
    "methods": {}
  }
}